{
	"data": {
		"bytecode": {
			"linkReferences": {
				"CustomLib.sol": {
					"customLib": [
						{
							"length": 20,
							"start": 2741
						}
					]
				}
			},
			"object": "608060405234801561001057600080fd5b50336000806101000a81548173ffffffffffffffffffffffffffffffffffffffff021916908373ffffffffffffffffffffffffffffffffffffffff160217905550600060018190555060006002819055506001600360003373ffffffffffffffffffffffffffffffffffffffff1673ffffffffffffffffffffffffffffffffffffffff16815260200190815260200160002060010160006101000a81548160ff02191690831515021790555061137e806100cb6000396000f3fe6080604052600436106100955760003560e01c806370a082311161005957806370a08231146101a55780638da5cb5b146101e257806398d5fdca1461020d578063a9059cbb14610238578063e4849b3214610275576100b5565b806315070401146100d057806317d7de7c146100fb57806318160ddd1461012657806340c10f191461015157806343d726d61461018e576100b5565b366100b55734600260008282546100ac9190610f2e565b92505081905550005b34600260008282546100c79190610f2e565b92505081905550005b3480156100dc57600080fd5b506100e56102b2565b6040516100f29190610db1565b60405180910390f35b34801561010757600080fd5b506101106102ef565b60405161011d9190610db1565b60405180910390f35b34801561013257600080fd5b5061013b61032c565b6040516101489190610ece565b60405180910390f35b34801561015d57600080fd5b5061017860048036038101906101739190610b59565b610336565b6040516101859190610d96565b60405180910390f35b34801561019a57600080fd5b506101a3610567565b005b3480156101b157600080fd5b506101cc60048036038101906101c79190610b2c565b61062e565b6040516101d99190610ece565b60405180910390f35b3480156101ee57600080fd5b506101f761067a565b6040516102049190610d7b565b60405180910390f35b34801561021957600080fd5b5061022261069e565b60405161022f9190610eb3565b60405180910390f35b34801561024457600080fd5b5061025f600480360381019061025a9190610b59565b6106a8565b60405161026c9190610d96565b60405180910390f35b34801561028157600080fd5b5061029c60048036038101906102979190610bc6565b6108e7565b6040516102a99190610d96565b60405180910390f35b60606040518060400160405280600481526020017f5354415200000000000000000000000000000000000000000000000000000000815250905090565b60606040518060400160405280600781526020017f53746172696e6700000000000000000000000000000000000000000000000000815250905090565b6000600154905090565b60008060009054906101000a900473ffffffffffffffffffffffffffffffffffffffff1673ffffffffffffffffffffffffffffffffffffffff163373ffffffffffffffffffffffffffffffffffffffff16146103c7576040517f08c379a00000000000000000000000000000000000000000000000000000000081526004016103be90610e13565b60405180910390fd5b6103cf61069e565b6fffffffffffffffffffffffffffffffff16826103ea61032c565b6103f49190610f2e565b6103fe9190610f84565b6002541015610442576040517f08c379a000000000000000000000000000000000000000000000000000000000815260040161043990610e33565b60405180910390fd5b6001600360008573ffffffffffffffffffffffffffffffffffffffff1673ffffffffffffffffffffffffffffffffffffffff16815260200190815260200160002060010160006101000a81548160ff02191690831515021790555081600360008573ffffffffffffffffffffffffffffffffffffffff1673ffffffffffffffffffffffffffffffffffffffff16815260200190815260200160002060000160008282546104ef9190610f2e565b9250508190555081600160008282546105089190610f2e565b925050819055508273ffffffffffffffffffffffffffffffffffffffff167f0f6798a560793a54c3bcfe86a93cde1e73087d944c0ea20544137d4121396885836040516105559190610ece565b60405180910390a26001905092915050565b60008054906101000a900473ffffffffffffffffffffffffffffffffffffffff1673ffffffffffffffffffffffffffffffffffffffff163373ffffffffffffffffffffffffffffffffffffffff16146105f5576040517f08c379a00000000000000000000000000000000000000000000000000000000081526004016105ec90610e73565b60405180910390fd5b60008054906101000a900473ffffffffffffffffffffffffffffffffffffffff1673ffffffffffffffffffffffffffffffffffffffff16ff5b6000600360008373ffffffffffffffffffffffffffffffffffffffff1673ffffffffffffffffffffffffffffffffffffffff168152602001908152602001600020600001549050919050565b60008054906101000a900473ffffffffffffffffffffffffffffffffffffffff1681565b6000610258905090565b60008082116106ec576040517f08c379a00000000000000000000000000000000000000000000000000000000081526004016106e390610df3565b60405180910390fd5b816106f63361062e565b1015610737576040517f08c379a000000000000000000000000000000000000000000000000000000000815260040161072e90610e53565b60405180910390fd5b600360008473ffffffffffffffffffffffffffffffffffffffff1673ffffffffffffffffffffffffffffffffffffffff16815260200190815260200160002060010160009054906101000a900460ff166107c6576040517f08c379a00000000000000000000000000000000000000000000000000000000081526004016107bd90610e93565b60405180910390fd5b81600360003373ffffffffffffffffffffffffffffffffffffffff1673ffffffffffffffffffffffffffffffffffffffff16815260200190815260200160002060000160008282546108189190610fde565b9250508190555081600360008573ffffffffffffffffffffffffffffffffffffffff1673ffffffffffffffffffffffffffffffffffffffff16815260200190815260200160002060000160008282546108719190610f2e565b925050819055508273ffffffffffffffffffffffffffffffffffffffff163373ffffffffffffffffffffffffffffffffffffffff167fddf252ad1be2c89b69c2b068fc378daa952ba7f163c4a11628f55a4df523b3ef846040516108d59190610ece565b60405180910390a36001905092915050565b600080821161092b576040517f08c379a000000000000000000000000000000000000000000000000000000000815260040161092290610dd3565b60405180910390fd5b816109353361062e565b1015610976576040517f08c379a000000000000000000000000000000000000000000000000000000000815260040161096d90610e53565b60405180910390fd5b81600360003373ffffffffffffffffffffffffffffffffffffffff1673ffffffffffffffffffffffffffffffffffffffff16815260200190815260200160002060000160008282546109c89190610fde565b9250508190555081600160008282546109e19190610fde565b9250508190555073__$56e8f023e8fc916e46487c15ab2965bfa5$__63c0ba8f42610a0a61069e565b6fffffffffffffffffffffffffffffffff1684610a279190610f84565b336040518363ffffffff1660e01b8152600401610a45929190610ee9565b60206040518083038186803b158015610a5d57600080fd5b505af4158015610a71573d6000803e3d6000fd5b505050506040513d601f19601f82011682018060405250810190610a959190610b99565b503373ffffffffffffffffffffffffffffffffffffffff167f5e5e995ce3133561afceaa51a9a154d5db228cd7525d34df5185582c18d3df0983604051610adc9190610ece565b60405180910390a260019050919050565b600081359050610afc81611303565b92915050565b600081519050610b118161131a565b92915050565b600081359050610b2681611331565b92915050565b600060208284031215610b4257610b416110ea565b5b6000610b5084828501610aed565b91505092915050565b60008060408385031215610b7057610b6f6110ea565b5b6000610b7e85828601610aed565b9250506020610b8f85828601610b17565b9150509250929050565b600060208284031215610baf57610bae6110ea565b5b6000610bbd84828501610b02565b91505092915050565b600060208284031215610bdc57610bdb6110ea565b5b6000610bea84828501610b17565b91505092915050565b610bfc81611024565b82525050565b610c0b81611012565b82525050565b610c1a81611036565b82525050565b6000610c2b82610f12565b610c358185610f1d565b9350610c45818560208601611088565b610c4e816110ef565b840191505092915050565b6000610c66601583610f1d565b9150610c7182611100565b602082019050919050565b6000610c89601983610f1d565b9150610c9482611129565b602082019050919050565b6000610cac602283610f1d565b9150610cb782611152565b604082019050919050565b6000610ccf604283610f1d565b9150610cda826111a1565b606082019050919050565b6000610cf2602883610f1d565b9150610cfd82611216565b604082019050919050565b6000610d15602983610f1d565b9150610d2082611265565b604082019050919050565b6000610d38602383610f1d565b9150610d43826112b4565b604082019050919050565b610d5781611042565b82525050565b610d668161107e565b82525050565b610d758161107e565b82525050565b6000602082019050610d906000830184610bf3565b92915050565b6000602082019050610dab6000830184610c11565b92915050565b60006020820190508181036000830152610dcb8184610c20565b905092915050565b60006020820190508181036000830152610dec81610c59565b9050919050565b60006020820190508181036000830152610e0c81610c7c565b9050919050565b60006020820190508181036000830152610e2c81610c9f565b9050919050565b60006020820190508181036000830152610e4c81610cc2565b9050919050565b60006020820190508181036000830152610e6c81610ce5565b9050919050565b60006020820190508181036000830152610e8c81610d08565b9050919050565b60006020820190508181036000830152610eac81610d2b565b9050919050565b6000602082019050610ec86000830184610d4e565b92915050565b6000602082019050610ee36000830184610d5d565b92915050565b6000604082019050610efe6000830185610d6c565b610f0b6020830184610c02565b9392505050565b600081519050919050565b600082825260208201905092915050565b6000610f398261107e565b9150610f448361107e565b9250827fffffffffffffffffffffffffffffffffffffffffffffffffffffffffffffffff03821115610f7957610f786110bb565b5b828201905092915050565b6000610f8f8261107e565b9150610f9a8361107e565b9250817fffffffffffffffffffffffffffffffffffffffffffffffffffffffffffffffff0483118215151615610fd357610fd26110bb565b5b828202905092915050565b6000610fe98261107e565b9150610ff48361107e565b925082821015611007576110066110bb565b5b828203905092915050565b600061101d8261105e565b9050919050565b600061102f8261105e565b9050919050565b60008115159050919050565b60006fffffffffffffffffffffffffffffffff82169050919050565b600073ffffffffffffffffffffffffffffffffffffffff82169050919050565b6000819050919050565b60005b838110156110a657808201518184015260208101905061108b565b838111156110b5576000848401525b50505050565b7f4e487b7100000000000000000000000000000000000000000000000000000000600052601160045260246000fd5b600080fd5b6000601f19601f8301169050919050565b7f4572726f723a2043616e6e6f742073656c6c20302e0000000000000000000000600082015250565b7f4572726f723a2043616e6e6f74207472616e7366657220302e00000000000000600082015250565b7f4572726f723a204f6e6c79206f776e65722063616e206d696e7420746f6b656e60008201527f732e000000000000000000000000000000000000000000000000000000000000602082015250565b7f4572726f723a204d696e74696e67206661696c65642064756520746f20696e7360008201527f756666696369656e742062616c616e636520696e2074686520636f6e7472616360208201527f742e000000000000000000000000000000000000000000000000000000000000604082015250565b7f4572726f723a204e6f7420656e6f75676820746f6b656e20696e20796f75722060008201527f6163636f756e742e000000000000000000000000000000000000000000000000602082015250565b7f4572726f723a204f6e6c79206f776e65722063616e20636c6f7365207468652060008201527f636f6e74726163742e0000000000000000000000000000000000000000000000602082015250565b7f4572726f723a205265636569766572206163636f756e74206e6f74206578697360008201527f74732e0000000000000000000000000000000000000000000000000000000000602082015250565b61130c81611012565b811461131757600080fd5b50565b61132381611036565b811461132e57600080fd5b50565b61133a8161107e565b811461134557600080fd5b5056fea264697066735822122070f8f0b25f75646d0a298390f8b595c2513ebb451515868c36379ad50bfd5f7d64736f6c63430008070033",
			"opcodes": "PUSH1 0x80 PUSH1 0x40 MSTORE CALLVALUE DUP1 ISZERO PUSH2 0x10 JUMPI PUSH1 0x0 DUP1 REVERT JUMPDEST POP CALLER PUSH1 0x0 DUP1 PUSH2 0x100 EXP DUP2 SLOAD DUP2 PUSH20 0xFFFFFFFFFFFFFFFFFFFFFFFFFFFFFFFFFFFFFFFF MUL NOT AND SWAP1 DUP4 PUSH20 0xFFFFFFFFFFFFFFFFFFFFFFFFFFFFFFFFFFFFFFFF AND MUL OR SWAP1 SSTORE POP PUSH1 0x0 PUSH1 0x1 DUP2 SWAP1 SSTORE POP PUSH1 0x0 PUSH1 0x2 DUP2 SWAP1 SSTORE POP PUSH1 0x1 PUSH1 0x3 PUSH1 0x0 CALLER PUSH20 0xFFFFFFFFFFFFFFFFFFFFFFFFFFFFFFFFFFFFFFFF AND PUSH20 0xFFFFFFFFFFFFFFFFFFFFFFFFFFFFFFFFFFFFFFFF AND DUP2 MSTORE PUSH1 0x20 ADD SWAP1 DUP2 MSTORE PUSH1 0x20 ADD PUSH1 0x0 KECCAK256 PUSH1 0x1 ADD PUSH1 0x0 PUSH2 0x100 EXP DUP2 SLOAD DUP2 PUSH1 0xFF MUL NOT AND SWAP1 DUP4 ISZERO ISZERO MUL OR SWAP1 SSTORE POP PUSH2 0x137E DUP1 PUSH2 0xCB PUSH1 0x0 CODECOPY PUSH1 0x0 RETURN INVALID PUSH1 0x80 PUSH1 0x40 MSTORE PUSH1 0x4 CALLDATASIZE LT PUSH2 0x95 JUMPI PUSH1 0x0 CALLDATALOAD PUSH1 0xE0 SHR DUP1 PUSH4 0x70A08231 GT PUSH2 0x59 JUMPI DUP1 PUSH4 0x70A08231 EQ PUSH2 0x1A5 JUMPI DUP1 PUSH4 0x8DA5CB5B EQ PUSH2 0x1E2 JUMPI DUP1 PUSH4 0x98D5FDCA EQ PUSH2 0x20D JUMPI DUP1 PUSH4 0xA9059CBB EQ PUSH2 0x238 JUMPI DUP1 PUSH4 0xE4849B32 EQ PUSH2 0x275 JUMPI PUSH2 0xB5 JUMP JUMPDEST DUP1 PUSH4 0x15070401 EQ PUSH2 0xD0 JUMPI DUP1 PUSH4 0x17D7DE7C EQ PUSH2 0xFB JUMPI DUP1 PUSH4 0x18160DDD EQ PUSH2 0x126 JUMPI DUP1 PUSH4 0x40C10F19 EQ PUSH2 0x151 JUMPI DUP1 PUSH4 0x43D726D6 EQ PUSH2 0x18E JUMPI PUSH2 0xB5 JUMP JUMPDEST CALLDATASIZE PUSH2 0xB5 JUMPI CALLVALUE PUSH1 0x2 PUSH1 0x0 DUP3 DUP3 SLOAD PUSH2 0xAC SWAP2 SWAP1 PUSH2 0xF2E JUMP JUMPDEST SWAP3 POP POP DUP2 SWAP1 SSTORE POP STOP JUMPDEST CALLVALUE PUSH1 0x2 PUSH1 0x0 DUP3 DUP3 SLOAD PUSH2 0xC7 SWAP2 SWAP1 PUSH2 0xF2E JUMP JUMPDEST SWAP3 POP POP DUP2 SWAP1 SSTORE POP STOP JUMPDEST CALLVALUE DUP1 ISZERO PUSH2 0xDC JUMPI PUSH1 0x0 DUP1 REVERT JUMPDEST POP PUSH2 0xE5 PUSH2 0x2B2 JUMP JUMPDEST PUSH1 0x40 MLOAD PUSH2 0xF2 SWAP2 SWAP1 PUSH2 0xDB1 JUMP JUMPDEST PUSH1 0x40 MLOAD DUP1 SWAP2 SUB SWAP1 RETURN JUMPDEST CALLVALUE DUP1 ISZERO PUSH2 0x107 JUMPI PUSH1 0x0 DUP1 REVERT JUMPDEST POP PUSH2 0x110 PUSH2 0x2EF JUMP JUMPDEST PUSH1 0x40 MLOAD PUSH2 0x11D SWAP2 SWAP1 PUSH2 0xDB1 JUMP JUMPDEST PUSH1 0x40 MLOAD DUP1 SWAP2 SUB SWAP1 RETURN JUMPDEST CALLVALUE DUP1 ISZERO PUSH2 0x132 JUMPI PUSH1 0x0 DUP1 REVERT JUMPDEST POP PUSH2 0x13B PUSH2 0x32C JUMP JUMPDEST PUSH1 0x40 MLOAD PUSH2 0x148 SWAP2 SWAP1 PUSH2 0xECE JUMP JUMPDEST PUSH1 0x40 MLOAD DUP1 SWAP2 SUB SWAP1 RETURN JUMPDEST CALLVALUE DUP1 ISZERO PUSH2 0x15D JUMPI PUSH1 0x0 DUP1 REVERT JUMPDEST POP PUSH2 0x178 PUSH1 0x4 DUP1 CALLDATASIZE SUB DUP2 ADD SWAP1 PUSH2 0x173 SWAP2 SWAP1 PUSH2 0xB59 JUMP JUMPDEST PUSH2 0x336 JUMP JUMPDEST PUSH1 0x40 MLOAD PUSH2 0x185 SWAP2 SWAP1 PUSH2 0xD96 JUMP JUMPDEST PUSH1 0x40 MLOAD DUP1 SWAP2 SUB SWAP1 RETURN JUMPDEST CALLVALUE DUP1 ISZERO PUSH2 0x19A JUMPI PUSH1 0x0 DUP1 REVERT JUMPDEST POP PUSH2 0x1A3 PUSH2 0x567 JUMP JUMPDEST STOP JUMPDEST CALLVALUE DUP1 ISZERO PUSH2 0x1B1 JUMPI PUSH1 0x0 DUP1 REVERT JUMPDEST POP PUSH2 0x1CC PUSH1 0x4 DUP1 CALLDATASIZE SUB DUP2 ADD SWAP1 PUSH2 0x1C7 SWAP2 SWAP1 PUSH2 0xB2C JUMP JUMPDEST PUSH2 0x62E JUMP JUMPDEST PUSH1 0x40 MLOAD PUSH2 0x1D9 SWAP2 SWAP1 PUSH2 0xECE JUMP JUMPDEST PUSH1 0x40 MLOAD DUP1 SWAP2 SUB SWAP1 RETURN JUMPDEST CALLVALUE DUP1 ISZERO PUSH2 0x1EE JUMPI PUSH1 0x0 DUP1 REVERT JUMPDEST POP PUSH2 0x1F7 PUSH2 0x67A JUMP JUMPDEST PUSH1 0x40 MLOAD PUSH2 0x204 SWAP2 SWAP1 PUSH2 0xD7B JUMP JUMPDEST PUSH1 0x40 MLOAD DUP1 SWAP2 SUB SWAP1 RETURN JUMPDEST CALLVALUE DUP1 ISZERO PUSH2 0x219 JUMPI PUSH1 0x0 DUP1 REVERT JUMPDEST POP PUSH2 0x222 PUSH2 0x69E JUMP JUMPDEST PUSH1 0x40 MLOAD PUSH2 0x22F SWAP2 SWAP1 PUSH2 0xEB3 JUMP JUMPDEST PUSH1 0x40 MLOAD DUP1 SWAP2 SUB SWAP1 RETURN JUMPDEST CALLVALUE DUP1 ISZERO PUSH2 0x244 JUMPI PUSH1 0x0 DUP1 REVERT JUMPDEST POP PUSH2 0x25F PUSH1 0x4 DUP1 CALLDATASIZE SUB DUP2 ADD SWAP1 PUSH2 0x25A SWAP2 SWAP1 PUSH2 0xB59 JUMP JUMPDEST PUSH2 0x6A8 JUMP JUMPDEST PUSH1 0x40 MLOAD PUSH2 0x26C SWAP2 SWAP1 PUSH2 0xD96 JUMP JUMPDEST PUSH1 0x40 MLOAD DUP1 SWAP2 SUB SWAP1 RETURN JUMPDEST CALLVALUE DUP1 ISZERO PUSH2 0x281 JUMPI PUSH1 0x0 DUP1 REVERT JUMPDEST POP PUSH2 0x29C PUSH1 0x4 DUP1 CALLDATASIZE SUB DUP2 ADD SWAP1 PUSH2 0x297 SWAP2 SWAP1 PUSH2 0xBC6 JUMP JUMPDEST PUSH2 0x8E7 JUMP JUMPDEST PUSH1 0x40 MLOAD PUSH2 0x2A9 SWAP2 SWAP1 PUSH2 0xD96 JUMP JUMPDEST PUSH1 0x40 MLOAD DUP1 SWAP2 SUB SWAP1 RETURN JUMPDEST PUSH1 0x60 PUSH1 0x40 MLOAD DUP1 PUSH1 0x40 ADD PUSH1 0x40 MSTORE DUP1 PUSH1 0x4 DUP2 MSTORE PUSH1 0x20 ADD PUSH32 0x5354415200000000000000000000000000000000000000000000000000000000 DUP2 MSTORE POP SWAP1 POP SWAP1 JUMP JUMPDEST PUSH1 0x60 PUSH1 0x40 MLOAD DUP1 PUSH1 0x40 ADD PUSH1 0x40 MSTORE DUP1 PUSH1 0x7 DUP2 MSTORE PUSH1 0x20 ADD PUSH32 0x53746172696E6700000000000000000000000000000000000000000000000000 DUP2 MSTORE POP SWAP1 POP SWAP1 JUMP JUMPDEST PUSH1 0x0 PUSH1 0x1 SLOAD SWAP1 POP SWAP1 JUMP JUMPDEST PUSH1 0x0 DUP1 PUSH1 0x0 SWAP1 SLOAD SWAP1 PUSH2 0x100 EXP SWAP1 DIV PUSH20 0xFFFFFFFFFFFFFFFFFFFFFFFFFFFFFFFFFFFFFFFF AND PUSH20 0xFFFFFFFFFFFFFFFFFFFFFFFFFFFFFFFFFFFFFFFF AND CALLER PUSH20 0xFFFFFFFFFFFFFFFFFFFFFFFFFFFFFFFFFFFFFFFF AND EQ PUSH2 0x3C7 JUMPI PUSH1 0x40 MLOAD PUSH32 0x8C379A000000000000000000000000000000000000000000000000000000000 DUP2 MSTORE PUSH1 0x4 ADD PUSH2 0x3BE SWAP1 PUSH2 0xE13 JUMP JUMPDEST PUSH1 0x40 MLOAD DUP1 SWAP2 SUB SWAP1 REVERT JUMPDEST PUSH2 0x3CF PUSH2 0x69E JUMP JUMPDEST PUSH16 0xFFFFFFFFFFFFFFFFFFFFFFFFFFFFFFFF AND DUP3 PUSH2 0x3EA PUSH2 0x32C JUMP JUMPDEST PUSH2 0x3F4 SWAP2 SWAP1 PUSH2 0xF2E JUMP JUMPDEST PUSH2 0x3FE SWAP2 SWAP1 PUSH2 0xF84 JUMP JUMPDEST PUSH1 0x2 SLOAD LT ISZERO PUSH2 0x442 JUMPI PUSH1 0x40 MLOAD PUSH32 0x8C379A000000000000000000000000000000000000000000000000000000000 DUP2 MSTORE PUSH1 0x4 ADD PUSH2 0x439 SWAP1 PUSH2 0xE33 JUMP JUMPDEST PUSH1 0x40 MLOAD DUP1 SWAP2 SUB SWAP1 REVERT JUMPDEST PUSH1 0x1 PUSH1 0x3 PUSH1 0x0 DUP6 PUSH20 0xFFFFFFFFFFFFFFFFFFFFFFFFFFFFFFFFFFFFFFFF AND PUSH20 0xFFFFFFFFFFFFFFFFFFFFFFFFFFFFFFFFFFFFFFFF AND DUP2 MSTORE PUSH1 0x20 ADD SWAP1 DUP2 MSTORE PUSH1 0x20 ADD PUSH1 0x0 KECCAK256 PUSH1 0x1 ADD PUSH1 0x0 PUSH2 0x100 EXP DUP2 SLOAD DUP2 PUSH1 0xFF MUL NOT AND SWAP1 DUP4 ISZERO ISZERO MUL OR SWAP1 SSTORE POP DUP2 PUSH1 0x3 PUSH1 0x0 DUP6 PUSH20 0xFFFFFFFFFFFFFFFFFFFFFFFFFFFFFFFFFFFFFFFF AND PUSH20 0xFFFFFFFFFFFFFFFFFFFFFFFFFFFFFFFFFFFFFFFF AND DUP2 MSTORE PUSH1 0x20 ADD SWAP1 DUP2 MSTORE PUSH1 0x20 ADD PUSH1 0x0 KECCAK256 PUSH1 0x0 ADD PUSH1 0x0 DUP3 DUP3 SLOAD PUSH2 0x4EF SWAP2 SWAP1 PUSH2 0xF2E JUMP JUMPDEST SWAP3 POP POP DUP2 SWAP1 SSTORE POP DUP2 PUSH1 0x1 PUSH1 0x0 DUP3 DUP3 SLOAD PUSH2 0x508 SWAP2 SWAP1 PUSH2 0xF2E JUMP JUMPDEST SWAP3 POP POP DUP2 SWAP1 SSTORE POP DUP3 PUSH20 0xFFFFFFFFFFFFFFFFFFFFFFFFFFFFFFFFFFFFFFFF AND PUSH32 0xF6798A560793A54C3BCFE86A93CDE1E73087D944C0EA20544137D4121396885 DUP4 PUSH1 0x40 MLOAD PUSH2 0x555 SWAP2 SWAP1 PUSH2 0xECE JUMP JUMPDEST PUSH1 0x40 MLOAD DUP1 SWAP2 SUB SWAP1 LOG2 PUSH1 0x1 SWAP1 POP SWAP3 SWAP2 POP POP JUMP JUMPDEST PUSH1 0x0 DUP1 SLOAD SWAP1 PUSH2 0x100 EXP SWAP1 DIV PUSH20 0xFFFFFFFFFFFFFFFFFFFFFFFFFFFFFFFFFFFFFFFF AND PUSH20 0xFFFFFFFFFFFFFFFFFFFFFFFFFFFFFFFFFFFFFFFF AND CALLER PUSH20 0xFFFFFFFFFFFFFFFFFFFFFFFFFFFFFFFFFFFFFFFF AND EQ PUSH2 0x5F5 JUMPI PUSH1 0x40 MLOAD PUSH32 0x8C379A000000000000000000000000000000000000000000000000000000000 DUP2 MSTORE PUSH1 0x4 ADD PUSH2 0x5EC SWAP1 PUSH2 0xE73 JUMP JUMPDEST PUSH1 0x40 MLOAD DUP1 SWAP2 SUB SWAP1 REVERT JUMPDEST PUSH1 0x0 DUP1 SLOAD SWAP1 PUSH2 0x100 EXP SWAP1 DIV PUSH20 0xFFFFFFFFFFFFFFFFFFFFFFFFFFFFFFFFFFFFFFFF AND PUSH20 0xFFFFFFFFFFFFFFFFFFFFFFFFFFFFFFFFFFFFFFFF AND SELFDESTRUCT JUMPDEST PUSH1 0x0 PUSH1 0x3 PUSH1 0x0 DUP4 PUSH20 0xFFFFFFFFFFFFFFFFFFFFFFFFFFFFFFFFFFFFFFFF AND PUSH20 0xFFFFFFFFFFFFFFFFFFFFFFFFFFFFFFFFFFFFFFFF AND DUP2 MSTORE PUSH1 0x20 ADD SWAP1 DUP2 MSTORE PUSH1 0x20 ADD PUSH1 0x0 KECCAK256 PUSH1 0x0 ADD SLOAD SWAP1 POP SWAP2 SWAP1 POP JUMP JUMPDEST PUSH1 0x0 DUP1 SLOAD SWAP1 PUSH2 0x100 EXP SWAP1 DIV PUSH20 0xFFFFFFFFFFFFFFFFFFFFFFFFFFFFFFFFFFFFFFFF AND DUP2 JUMP JUMPDEST PUSH1 0x0 PUSH2 0x258 SWAP1 POP SWAP1 JUMP JUMPDEST PUSH1 0x0 DUP1 DUP3 GT PUSH2 0x6EC JUMPI PUSH1 0x40 MLOAD PUSH32 0x8C379A000000000000000000000000000000000000000000000000000000000 DUP2 MSTORE PUSH1 0x4 ADD PUSH2 0x6E3 SWAP1 PUSH2 0xDF3 JUMP JUMPDEST PUSH1 0x40 MLOAD DUP1 SWAP2 SUB SWAP1 REVERT JUMPDEST DUP2 PUSH2 0x6F6 CALLER PUSH2 0x62E JUMP JUMPDEST LT ISZERO PUSH2 0x737 JUMPI PUSH1 0x40 MLOAD PUSH32 0x8C379A000000000000000000000000000000000000000000000000000000000 DUP2 MSTORE PUSH1 0x4 ADD PUSH2 0x72E SWAP1 PUSH2 0xE53 JUMP JUMPDEST PUSH1 0x40 MLOAD DUP1 SWAP2 SUB SWAP1 REVERT JUMPDEST PUSH1 0x3 PUSH1 0x0 DUP5 PUSH20 0xFFFFFFFFFFFFFFFFFFFFFFFFFFFFFFFFFFFFFFFF AND PUSH20 0xFFFFFFFFFFFFFFFFFFFFFFFFFFFFFFFFFFFFFFFF AND DUP2 MSTORE PUSH1 0x20 ADD SWAP1 DUP2 MSTORE PUSH1 0x20 ADD PUSH1 0x0 KECCAK256 PUSH1 0x1 ADD PUSH1 0x0 SWAP1 SLOAD SWAP1 PUSH2 0x100 EXP SWAP1 DIV PUSH1 0xFF AND PUSH2 0x7C6 JUMPI PUSH1 0x40 MLOAD PUSH32 0x8C379A000000000000000000000000000000000000000000000000000000000 DUP2 MSTORE PUSH1 0x4 ADD PUSH2 0x7BD SWAP1 PUSH2 0xE93 JUMP JUMPDEST PUSH1 0x40 MLOAD DUP1 SWAP2 SUB SWAP1 REVERT JUMPDEST DUP2 PUSH1 0x3 PUSH1 0x0 CALLER PUSH20 0xFFFFFFFFFFFFFFFFFFFFFFFFFFFFFFFFFFFFFFFF AND PUSH20 0xFFFFFFFFFFFFFFFFFFFFFFFFFFFFFFFFFFFFFFFF AND DUP2 MSTORE PUSH1 0x20 ADD SWAP1 DUP2 MSTORE PUSH1 0x20 ADD PUSH1 0x0 KECCAK256 PUSH1 0x0 ADD PUSH1 0x0 DUP3 DUP3 SLOAD PUSH2 0x818 SWAP2 SWAP1 PUSH2 0xFDE JUMP JUMPDEST SWAP3 POP POP DUP2 SWAP1 SSTORE POP DUP2 PUSH1 0x3 PUSH1 0x0 DUP6 PUSH20 0xFFFFFFFFFFFFFFFFFFFFFFFFFFFFFFFFFFFFFFFF AND PUSH20 0xFFFFFFFFFFFFFFFFFFFFFFFFFFFFFFFFFFFFFFFF AND DUP2 MSTORE PUSH1 0x20 ADD SWAP1 DUP2 MSTORE PUSH1 0x20 ADD PUSH1 0x0 KECCAK256 PUSH1 0x0 ADD PUSH1 0x0 DUP3 DUP3 SLOAD PUSH2 0x871 SWAP2 SWAP1 PUSH2 0xF2E JUMP JUMPDEST SWAP3 POP POP DUP2 SWAP1 SSTORE POP DUP3 PUSH20 0xFFFFFFFFFFFFFFFFFFFFFFFFFFFFFFFFFFFFFFFF AND CALLER PUSH20 0xFFFFFFFFFFFFFFFFFFFFFFFFFFFFFFFFFFFFFFFF AND PUSH32 0xDDF252AD1BE2C89B69C2B068FC378DAA952BA7F163C4A11628F55A4DF523B3EF DUP5 PUSH1 0x40 MLOAD PUSH2 0x8D5 SWAP2 SWAP1 PUSH2 0xECE JUMP JUMPDEST PUSH1 0x40 MLOAD DUP1 SWAP2 SUB SWAP1 LOG3 PUSH1 0x1 SWAP1 POP SWAP3 SWAP2 POP POP JUMP JUMPDEST PUSH1 0x0 DUP1 DUP3 GT PUSH2 0x92B JUMPI PUSH1 0x40 MLOAD PUSH32 0x8C379A000000000000000000000000000000000000000000000000000000000 DUP2 MSTORE PUSH1 0x4 ADD PUSH2 0x922 SWAP1 PUSH2 0xDD3 JUMP JUMPDEST PUSH1 0x40 MLOAD DUP1 SWAP2 SUB SWAP1 REVERT JUMPDEST DUP2 PUSH2 0x935 CALLER PUSH2 0x62E JUMP JUMPDEST LT ISZERO PUSH2 0x976 JUMPI PUSH1 0x40 MLOAD PUSH32 0x8C379A000000000000000000000000000000000000000000000000000000000 DUP2 MSTORE PUSH1 0x4 ADD PUSH2 0x96D SWAP1 PUSH2 0xE53 JUMP JUMPDEST PUSH1 0x40 MLOAD DUP1 SWAP2 SUB SWAP1 REVERT JUMPDEST DUP2 PUSH1 0x3 PUSH1 0x0 CALLER PUSH20 0xFFFFFFFFFFFFFFFFFFFFFFFFFFFFFFFFFFFFFFFF AND PUSH20 0xFFFFFFFFFFFFFFFFFFFFFFFFFFFFFFFFFFFFFFFF AND DUP2 MSTORE PUSH1 0x20 ADD SWAP1 DUP2 MSTORE PUSH1 0x20 ADD PUSH1 0x0 KECCAK256 PUSH1 0x0 ADD PUSH1 0x0 DUP3 DUP3 SLOAD PUSH2 0x9C8 SWAP2 SWAP1 PUSH2 0xFDE JUMP JUMPDEST SWAP3 POP POP DUP2 SWAP1 SSTORE POP DUP2 PUSH1 0x1 PUSH1 0x0 DUP3 DUP3 SLOAD PUSH2 0x9E1 SWAP2 SWAP1 PUSH2 0xFDE JUMP JUMPDEST SWAP3 POP POP DUP2 SWAP1 SSTORE POP PUSH20 0x0 PUSH4 0xC0BA8F42 PUSH2 0xA0A PUSH2 0x69E JUMP JUMPDEST PUSH16 0xFFFFFFFFFFFFFFFFFFFFFFFFFFFFFFFF AND DUP5 PUSH2 0xA27 SWAP2 SWAP1 PUSH2 0xF84 JUMP JUMPDEST CALLER PUSH1 0x40 MLOAD DUP4 PUSH4 0xFFFFFFFF AND PUSH1 0xE0 SHL DUP2 MSTORE PUSH1 0x4 ADD PUSH2 0xA45 SWAP3 SWAP2 SWAP1 PUSH2 0xEE9 JUMP JUMPDEST PUSH1 0x20 PUSH1 0x40 MLOAD DUP1 DUP4 SUB DUP2 DUP7 DUP1 EXTCODESIZE ISZERO DUP1 ISZERO PUSH2 0xA5D JUMPI PUSH1 0x0 DUP1 REVERT JUMPDEST POP GAS DELEGATECALL ISZERO DUP1 ISZERO PUSH2 0xA71 JUMPI RETURNDATASIZE PUSH1 0x0 DUP1 RETURNDATACOPY RETURNDATASIZE PUSH1 0x0 REVERT JUMPDEST POP POP POP POP PUSH1 0x40 MLOAD RETURNDATASIZE PUSH1 0x1F NOT PUSH1 0x1F DUP3 ADD AND DUP3 ADD DUP1 PUSH1 0x40 MSTORE POP DUP2 ADD SWAP1 PUSH2 0xA95 SWAP2 SWAP1 PUSH2 0xB99 JUMP JUMPDEST POP CALLER PUSH20 0xFFFFFFFFFFFFFFFFFFFFFFFFFFFFFFFFFFFFFFFF AND PUSH32 0x5E5E995CE3133561AFCEAA51A9A154D5DB228CD7525D34DF5185582C18D3DF09 DUP4 PUSH1 0x40 MLOAD PUSH2 0xADC SWAP2 SWAP1 PUSH2 0xECE JUMP JUMPDEST PUSH1 0x40 MLOAD DUP1 SWAP2 SUB SWAP1 LOG2 PUSH1 0x1 SWAP1 POP SWAP2 SWAP1 POP JUMP JUMPDEST PUSH1 0x0 DUP2 CALLDATALOAD SWAP1 POP PUSH2 0xAFC DUP2 PUSH2 0x1303 JUMP JUMPDEST SWAP3 SWAP2 POP POP JUMP JUMPDEST PUSH1 0x0 DUP2 MLOAD SWAP1 POP PUSH2 0xB11 DUP2 PUSH2 0x131A JUMP JUMPDEST SWAP3 SWAP2 POP POP JUMP JUMPDEST PUSH1 0x0 DUP2 CALLDATALOAD SWAP1 POP PUSH2 0xB26 DUP2 PUSH2 0x1331 JUMP JUMPDEST SWAP3 SWAP2 POP POP JUMP JUMPDEST PUSH1 0x0 PUSH1 0x20 DUP3 DUP5 SUB SLT ISZERO PUSH2 0xB42 JUMPI PUSH2 0xB41 PUSH2 0x10EA JUMP JUMPDEST JUMPDEST PUSH1 0x0 PUSH2 0xB50 DUP5 DUP3 DUP6 ADD PUSH2 0xAED JUMP JUMPDEST SWAP2 POP POP SWAP3 SWAP2 POP POP JUMP JUMPDEST PUSH1 0x0 DUP1 PUSH1 0x40 DUP4 DUP6 SUB SLT ISZERO PUSH2 0xB70 JUMPI PUSH2 0xB6F PUSH2 0x10EA JUMP JUMPDEST JUMPDEST PUSH1 0x0 PUSH2 0xB7E DUP6 DUP3 DUP7 ADD PUSH2 0xAED JUMP JUMPDEST SWAP3 POP POP PUSH1 0x20 PUSH2 0xB8F DUP6 DUP3 DUP7 ADD PUSH2 0xB17 JUMP JUMPDEST SWAP2 POP POP SWAP3 POP SWAP3 SWAP1 POP JUMP JUMPDEST PUSH1 0x0 PUSH1 0x20 DUP3 DUP5 SUB SLT ISZERO PUSH2 0xBAF JUMPI PUSH2 0xBAE PUSH2 0x10EA JUMP JUMPDEST JUMPDEST PUSH1 0x0 PUSH2 0xBBD DUP5 DUP3 DUP6 ADD PUSH2 0xB02 JUMP JUMPDEST SWAP2 POP POP SWAP3 SWAP2 POP POP JUMP JUMPDEST PUSH1 0x0 PUSH1 0x20 DUP3 DUP5 SUB SLT ISZERO PUSH2 0xBDC JUMPI PUSH2 0xBDB PUSH2 0x10EA JUMP JUMPDEST JUMPDEST PUSH1 0x0 PUSH2 0xBEA DUP5 DUP3 DUP6 ADD PUSH2 0xB17 JUMP JUMPDEST SWAP2 POP POP SWAP3 SWAP2 POP POP JUMP JUMPDEST PUSH2 0xBFC DUP2 PUSH2 0x1024 JUMP JUMPDEST DUP3 MSTORE POP POP JUMP JUMPDEST PUSH2 0xC0B DUP2 PUSH2 0x1012 JUMP JUMPDEST DUP3 MSTORE POP POP JUMP JUMPDEST PUSH2 0xC1A DUP2 PUSH2 0x1036 JUMP JUMPDEST DUP3 MSTORE POP POP JUMP JUMPDEST PUSH1 0x0 PUSH2 0xC2B DUP3 PUSH2 0xF12 JUMP JUMPDEST PUSH2 0xC35 DUP2 DUP6 PUSH2 0xF1D JUMP JUMPDEST SWAP4 POP PUSH2 0xC45 DUP2 DUP6 PUSH1 0x20 DUP7 ADD PUSH2 0x1088 JUMP JUMPDEST PUSH2 0xC4E DUP2 PUSH2 0x10EF JUMP JUMPDEST DUP5 ADD SWAP2 POP POP SWAP3 SWAP2 POP POP JUMP JUMPDEST PUSH1 0x0 PUSH2 0xC66 PUSH1 0x15 DUP4 PUSH2 0xF1D JUMP JUMPDEST SWAP2 POP PUSH2 0xC71 DUP3 PUSH2 0x1100 JUMP JUMPDEST PUSH1 0x20 DUP3 ADD SWAP1 POP SWAP2 SWAP1 POP JUMP JUMPDEST PUSH1 0x0 PUSH2 0xC89 PUSH1 0x19 DUP4 PUSH2 0xF1D JUMP JUMPDEST SWAP2 POP PUSH2 0xC94 DUP3 PUSH2 0x1129 JUMP JUMPDEST PUSH1 0x20 DUP3 ADD SWAP1 POP SWAP2 SWAP1 POP JUMP JUMPDEST PUSH1 0x0 PUSH2 0xCAC PUSH1 0x22 DUP4 PUSH2 0xF1D JUMP JUMPDEST SWAP2 POP PUSH2 0xCB7 DUP3 PUSH2 0x1152 JUMP JUMPDEST PUSH1 0x40 DUP3 ADD SWAP1 POP SWAP2 SWAP1 POP JUMP JUMPDEST PUSH1 0x0 PUSH2 0xCCF PUSH1 0x42 DUP4 PUSH2 0xF1D JUMP JUMPDEST SWAP2 POP PUSH2 0xCDA DUP3 PUSH2 0x11A1 JUMP JUMPDEST PUSH1 0x60 DUP3 ADD SWAP1 POP SWAP2 SWAP1 POP JUMP JUMPDEST PUSH1 0x0 PUSH2 0xCF2 PUSH1 0x28 DUP4 PUSH2 0xF1D JUMP JUMPDEST SWAP2 POP PUSH2 0xCFD DUP3 PUSH2 0x1216 JUMP JUMPDEST PUSH1 0x40 DUP3 ADD SWAP1 POP SWAP2 SWAP1 POP JUMP JUMPDEST PUSH1 0x0 PUSH2 0xD15 PUSH1 0x29 DUP4 PUSH2 0xF1D JUMP JUMPDEST SWAP2 POP PUSH2 0xD20 DUP3 PUSH2 0x1265 JUMP JUMPDEST PUSH1 0x40 DUP3 ADD SWAP1 POP SWAP2 SWAP1 POP JUMP JUMPDEST PUSH1 0x0 PUSH2 0xD38 PUSH1 0x23 DUP4 PUSH2 0xF1D JUMP JUMPDEST SWAP2 POP PUSH2 0xD43 DUP3 PUSH2 0x12B4 JUMP JUMPDEST PUSH1 0x40 DUP3 ADD SWAP1 POP SWAP2 SWAP1 POP JUMP JUMPDEST PUSH2 0xD57 DUP2 PUSH2 0x1042 JUMP JUMPDEST DUP3 MSTORE POP POP JUMP JUMPDEST PUSH2 0xD66 DUP2 PUSH2 0x107E JUMP JUMPDEST DUP3 MSTORE POP POP JUMP JUMPDEST PUSH2 0xD75 DUP2 PUSH2 0x107E JUMP JUMPDEST DUP3 MSTORE POP POP JUMP JUMPDEST PUSH1 0x0 PUSH1 0x20 DUP3 ADD SWAP1 POP PUSH2 0xD90 PUSH1 0x0 DUP4 ADD DUP5 PUSH2 0xBF3 JUMP JUMPDEST SWAP3 SWAP2 POP POP JUMP JUMPDEST PUSH1 0x0 PUSH1 0x20 DUP3 ADD SWAP1 POP PUSH2 0xDAB PUSH1 0x0 DUP4 ADD DUP5 PUSH2 0xC11 JUMP JUMPDEST SWAP3 SWAP2 POP POP JUMP JUMPDEST PUSH1 0x0 PUSH1 0x20 DUP3 ADD SWAP1 POP DUP2 DUP2 SUB PUSH1 0x0 DUP4 ADD MSTORE PUSH2 0xDCB DUP2 DUP5 PUSH2 0xC20 JUMP JUMPDEST SWAP1 POP SWAP3 SWAP2 POP POP JUMP JUMPDEST PUSH1 0x0 PUSH1 0x20 DUP3 ADD SWAP1 POP DUP2 DUP2 SUB PUSH1 0x0 DUP4 ADD MSTORE PUSH2 0xDEC DUP2 PUSH2 0xC59 JUMP JUMPDEST SWAP1 POP SWAP2 SWAP1 POP JUMP JUMPDEST PUSH1 0x0 PUSH1 0x20 DUP3 ADD SWAP1 POP DUP2 DUP2 SUB PUSH1 0x0 DUP4 ADD MSTORE PUSH2 0xE0C DUP2 PUSH2 0xC7C JUMP JUMPDEST SWAP1 POP SWAP2 SWAP1 POP JUMP JUMPDEST PUSH1 0x0 PUSH1 0x20 DUP3 ADD SWAP1 POP DUP2 DUP2 SUB PUSH1 0x0 DUP4 ADD MSTORE PUSH2 0xE2C DUP2 PUSH2 0xC9F JUMP JUMPDEST SWAP1 POP SWAP2 SWAP1 POP JUMP JUMPDEST PUSH1 0x0 PUSH1 0x20 DUP3 ADD SWAP1 POP DUP2 DUP2 SUB PUSH1 0x0 DUP4 ADD MSTORE PUSH2 0xE4C DUP2 PUSH2 0xCC2 JUMP JUMPDEST SWAP1 POP SWAP2 SWAP1 POP JUMP JUMPDEST PUSH1 0x0 PUSH1 0x20 DUP3 ADD SWAP1 POP DUP2 DUP2 SUB PUSH1 0x0 DUP4 ADD MSTORE PUSH2 0xE6C DUP2 PUSH2 0xCE5 JUMP JUMPDEST SWAP1 POP SWAP2 SWAP1 POP JUMP JUMPDEST PUSH1 0x0 PUSH1 0x20 DUP3 ADD SWAP1 POP DUP2 DUP2 SUB PUSH1 0x0 DUP4 ADD MSTORE PUSH2 0xE8C DUP2 PUSH2 0xD08 JUMP JUMPDEST SWAP1 POP SWAP2 SWAP1 POP JUMP JUMPDEST PUSH1 0x0 PUSH1 0x20 DUP3 ADD SWAP1 POP DUP2 DUP2 SUB PUSH1 0x0 DUP4 ADD MSTORE PUSH2 0xEAC DUP2 PUSH2 0xD2B JUMP JUMPDEST SWAP1 POP SWAP2 SWAP1 POP JUMP JUMPDEST PUSH1 0x0 PUSH1 0x20 DUP3 ADD SWAP1 POP PUSH2 0xEC8 PUSH1 0x0 DUP4 ADD DUP5 PUSH2 0xD4E JUMP JUMPDEST SWAP3 SWAP2 POP POP JUMP JUMPDEST PUSH1 0x0 PUSH1 0x20 DUP3 ADD SWAP1 POP PUSH2 0xEE3 PUSH1 0x0 DUP4 ADD DUP5 PUSH2 0xD5D JUMP JUMPDEST SWAP3 SWAP2 POP POP JUMP JUMPDEST PUSH1 0x0 PUSH1 0x40 DUP3 ADD SWAP1 POP PUSH2 0xEFE PUSH1 0x0 DUP4 ADD DUP6 PUSH2 0xD6C JUMP JUMPDEST PUSH2 0xF0B PUSH1 0x20 DUP4 ADD DUP5 PUSH2 0xC02 JUMP JUMPDEST SWAP4 SWAP3 POP POP POP JUMP JUMPDEST PUSH1 0x0 DUP2 MLOAD SWAP1 POP SWAP2 SWAP1 POP JUMP JUMPDEST PUSH1 0x0 DUP3 DUP3 MSTORE PUSH1 0x20 DUP3 ADD SWAP1 POP SWAP3 SWAP2 POP POP JUMP JUMPDEST PUSH1 0x0 PUSH2 0xF39 DUP3 PUSH2 0x107E JUMP JUMPDEST SWAP2 POP PUSH2 0xF44 DUP4 PUSH2 0x107E JUMP JUMPDEST SWAP3 POP DUP3 PUSH32 0xFFFFFFFFFFFFFFFFFFFFFFFFFFFFFFFFFFFFFFFFFFFFFFFFFFFFFFFFFFFFFFFF SUB DUP3 GT ISZERO PUSH2 0xF79 JUMPI PUSH2 0xF78 PUSH2 0x10BB JUMP JUMPDEST JUMPDEST DUP3 DUP3 ADD SWAP1 POP SWAP3 SWAP2 POP POP JUMP JUMPDEST PUSH1 0x0 PUSH2 0xF8F DUP3 PUSH2 0x107E JUMP JUMPDEST SWAP2 POP PUSH2 0xF9A DUP4 PUSH2 0x107E JUMP JUMPDEST SWAP3 POP DUP2 PUSH32 0xFFFFFFFFFFFFFFFFFFFFFFFFFFFFFFFFFFFFFFFFFFFFFFFFFFFFFFFFFFFFFFFF DIV DUP4 GT DUP3 ISZERO ISZERO AND ISZERO PUSH2 0xFD3 JUMPI PUSH2 0xFD2 PUSH2 0x10BB JUMP JUMPDEST JUMPDEST DUP3 DUP3 MUL SWAP1 POP SWAP3 SWAP2 POP POP JUMP JUMPDEST PUSH1 0x0 PUSH2 0xFE9 DUP3 PUSH2 0x107E JUMP JUMPDEST SWAP2 POP PUSH2 0xFF4 DUP4 PUSH2 0x107E JUMP JUMPDEST SWAP3 POP DUP3 DUP3 LT ISZERO PUSH2 0x1007 JUMPI PUSH2 0x1006 PUSH2 0x10BB JUMP JUMPDEST JUMPDEST DUP3 DUP3 SUB SWAP1 POP SWAP3 SWAP2 POP POP JUMP JUMPDEST PUSH1 0x0 PUSH2 0x101D DUP3 PUSH2 0x105E JUMP JUMPDEST SWAP1 POP SWAP2 SWAP1 POP JUMP JUMPDEST PUSH1 0x0 PUSH2 0x102F DUP3 PUSH2 0x105E JUMP JUMPDEST SWAP1 POP SWAP2 SWAP1 POP JUMP JUMPDEST PUSH1 0x0 DUP2 ISZERO ISZERO SWAP1 POP SWAP2 SWAP1 POP JUMP JUMPDEST PUSH1 0x0 PUSH16 0xFFFFFFFFFFFFFFFFFFFFFFFFFFFFFFFF DUP3 AND SWAP1 POP SWAP2 SWAP1 POP JUMP JUMPDEST PUSH1 0x0 PUSH20 0xFFFFFFFFFFFFFFFFFFFFFFFFFFFFFFFFFFFFFFFF DUP3 AND SWAP1 POP SWAP2 SWAP1 POP JUMP JUMPDEST PUSH1 0x0 DUP2 SWAP1 POP SWAP2 SWAP1 POP JUMP JUMPDEST PUSH1 0x0 JUMPDEST DUP4 DUP2 LT ISZERO PUSH2 0x10A6 JUMPI DUP1 DUP3 ADD MLOAD DUP2 DUP5 ADD MSTORE PUSH1 0x20 DUP2 ADD SWAP1 POP PUSH2 0x108B JUMP JUMPDEST DUP4 DUP2 GT ISZERO PUSH2 0x10B5 JUMPI PUSH1 0x0 DUP5 DUP5 ADD MSTORE JUMPDEST POP POP POP POP JUMP JUMPDEST PUSH32 0x4E487B7100000000000000000000000000000000000000000000000000000000 PUSH1 0x0 MSTORE PUSH1 0x11 PUSH1 0x4 MSTORE PUSH1 0x24 PUSH1 0x0 REVERT JUMPDEST PUSH1 0x0 DUP1 REVERT JUMPDEST PUSH1 0x0 PUSH1 0x1F NOT PUSH1 0x1F DUP4 ADD AND SWAP1 POP SWAP2 SWAP1 POP JUMP JUMPDEST PUSH32 0x4572726F723A2043616E6E6F742073656C6C20302E0000000000000000000000 PUSH1 0x0 DUP3 ADD MSTORE POP JUMP JUMPDEST PUSH32 0x4572726F723A2043616E6E6F74207472616E7366657220302E00000000000000 PUSH1 0x0 DUP3 ADD MSTORE POP JUMP JUMPDEST PUSH32 0x4572726F723A204F6E6C79206F776E65722063616E206D696E7420746F6B656E PUSH1 0x0 DUP3 ADD MSTORE PUSH32 0x732E000000000000000000000000000000000000000000000000000000000000 PUSH1 0x20 DUP3 ADD MSTORE POP JUMP JUMPDEST PUSH32 0x4572726F723A204D696E74696E67206661696C65642064756520746F20696E73 PUSH1 0x0 DUP3 ADD MSTORE PUSH32 0x756666696369656E742062616C616E636520696E2074686520636F6E74726163 PUSH1 0x20 DUP3 ADD MSTORE PUSH32 0x742E000000000000000000000000000000000000000000000000000000000000 PUSH1 0x40 DUP3 ADD MSTORE POP JUMP JUMPDEST PUSH32 0x4572726F723A204E6F7420656E6F75676820746F6B656E20696E20796F757220 PUSH1 0x0 DUP3 ADD MSTORE PUSH32 0x6163636F756E742E000000000000000000000000000000000000000000000000 PUSH1 0x20 DUP3 ADD MSTORE POP JUMP JUMPDEST PUSH32 0x4572726F723A204F6E6C79206F776E65722063616E20636C6F73652074686520 PUSH1 0x0 DUP3 ADD MSTORE PUSH32 0x636F6E74726163742E0000000000000000000000000000000000000000000000 PUSH1 0x20 DUP3 ADD MSTORE POP JUMP JUMPDEST PUSH32 0x4572726F723A205265636569766572206163636F756E74206E6F742065786973 PUSH1 0x0 DUP3 ADD MSTORE PUSH32 0x74732E0000000000000000000000000000000000000000000000000000000000 PUSH1 0x20 DUP3 ADD MSTORE POP JUMP JUMPDEST PUSH2 0x130C DUP2 PUSH2 0x1012 JUMP JUMPDEST DUP2 EQ PUSH2 0x1317 JUMPI PUSH1 0x0 DUP1 REVERT JUMPDEST POP JUMP JUMPDEST PUSH2 0x1323 DUP2 PUSH2 0x1036 JUMP JUMPDEST DUP2 EQ PUSH2 0x132E JUMPI PUSH1 0x0 DUP1 REVERT JUMPDEST POP JUMP JUMPDEST PUSH2 0x133A DUP2 PUSH2 0x107E JUMP JUMPDEST DUP2 EQ PUSH2 0x1345 JUMPI PUSH1 0x0 DUP1 REVERT JUMPDEST POP JUMP INVALID LOG2 PUSH5 0x6970667358 0x22 SLT KECCAK256 PUSH17 0xF8F0B25F75646D0A298390F8B595C2513E 0xBB GASLIMIT ISZERO ISZERO DUP7 DUP13 CALLDATASIZE CALLDATACOPY SWAP11 0xD5 SIGNEXTEND REVERT 0x5F PUSH30 0x64736F6C6343000807003300000000000000000000000000000000000000 "
		},
		"gasEstimates": {
			"creation": {
				"codeDepositCost": "998000",
				"executionCost": "59690",
				"totalCost": "1057690"
			},
			"external": {
				"": "infinite",
				"balanceOf(address)": "2847",
				"close()": "32133",
				"getName()": "infinite",
				"getPrice()": "387",
				"getSymbol()": "infinite",
				"mint(address,uint256)": "infinite",
				"owner()": "2533",
				"sell(uint256)": "infinite",
				"totalSupply()": "2482",
				"transfer(address,uint256)": "infinite"
			}
		},
		"methodIdentifiers": {
			"balanceOf(address)": "70a08231",
			"close()": "43d726d6",
			"getName()": "17d7de7c",
			"getPrice()": "98d5fdca",
			"getSymbol()": "15070401",
			"mint(address,uint256)": "40c10f19",
			"owner()": "8da5cb5b",
			"sell(uint256)": "e4849b32",
			"totalSupply()": "18160ddd",
			"transfer(address,uint256)": "a9059cbb"
		}
	},
	"abi": [
		{
			"inputs": [],
			"stateMutability": "nonpayable",
			"type": "constructor"
		},
		{
			"anonymous": false,
			"inputs": [
				{
					"indexed": true,
					"internalType": "address",
					"name": "to",
					"type": "address"
				},
				{
					"indexed": false,
					"internalType": "uint256",
					"name": "value",
					"type": "uint256"
				}
			],
			"name": "Mint",
			"type": "event"
		},
		{
			"anonymous": false,
			"inputs": [
				{
					"indexed": true,
					"internalType": "address",
					"name": "from",
					"type": "address"
				},
				{
					"indexed": false,
					"internalType": "uint256",
					"name": "value",
					"type": "uint256"
				}
			],
			"name": "Sell",
			"type": "event"
		},
		{
			"anonymous": false,
			"inputs": [
				{
					"indexed": true,
					"internalType": "address",
					"name": "from",
					"type": "address"
				},
				{
					"indexed": true,
					"internalType": "address",
					"name": "to",
					"type": "address"
				},
				{
					"indexed": false,
					"internalType": "uint256",
					"name": "value",
					"type": "uint256"
				}
			],
			"name": "Transfer",
			"type": "event"
		},
		{
			"stateMutability": "payable",
			"type": "fallback"
		},
		{
			"inputs": [
				{
					"internalType": "address",
					"name": "_account",
					"type": "address"
				}
			],
			"name": "balanceOf",
			"outputs": [
				{
					"internalType": "uint256",
					"name": "",
					"type": "uint256"
				}
			],
			"stateMutability": "view",
			"type": "function"
		},
		{
			"inputs": [],
			"name": "close",
			"outputs": [],
			"stateMutability": "nonpayable",
			"type": "function"
		},
		{
			"inputs": [],
			"name": "getName",
			"outputs": [
				{
					"internalType": "string",
					"name": "",
					"type": "string"
				}
			],
			"stateMutability": "view",
			"type": "function"
		},
		{
			"inputs": [],
			"name": "getPrice",
			"outputs": [
				{
					"internalType": "uint128",
					"name": "",
					"type": "uint128"
				}
			],
			"stateMutability": "view",
			"type": "function"
		},
		{
			"inputs": [],
			"name": "getSymbol",
			"outputs": [
				{
					"internalType": "string",
					"name": "",
					"type": "string"
				}
			],
			"stateMutability": "view",
			"type": "function"
		},
		{
			"inputs": [
				{
					"internalType": "address",
					"name": "to",
					"type": "address"
				},
				{
					"internalType": "uint256",
					"name": "value",
					"type": "uint256"
				}
			],
			"name": "mint",
			"outputs": [
				{
					"internalType": "bool",
					"name": "",
					"type": "bool"
				}
			],
			"stateMutability": "nonpayable",
			"type": "function"
		},
		{
			"inputs": [],
			"name": "owner",
			"outputs": [
				{
					"internalType": "address payable",
					"name": "",
					"type": "address"
				}
			],
			"stateMutability": "view",
			"type": "function"
		},
		{
			"inputs": [
				{
					"internalType": "uint256",
					"name": "value",
					"type": "uint256"
				}
			],
			"name": "sell",
			"outputs": [
				{
					"internalType": "bool",
					"name": "",
					"type": "bool"
				}
			],
			"stateMutability": "nonpayable",
			"type": "function"
		},
		{
			"inputs": [],
			"name": "totalSupply",
			"outputs": [
				{
					"internalType": "uint256",
					"name": "",
					"type": "uint256"
				}
			],
			"stateMutability": "view",
			"type": "function"
		},
		{
			"inputs": [
				{
					"internalType": "address",
					"name": "to",
					"type": "address"
				},
				{
					"internalType": "uint256",
					"name": "value",
					"type": "uint256"
				}
			],
			"name": "transfer",
			"outputs": [
				{
					"internalType": "bool",
					"name": "",
					"type": "bool"
				}
			],
			"stateMutability": "nonpayable",
			"type": "function"
		},
		{
			"stateMutability": "payable",
			"type": "receive"
		}
	]
}